{
  "contractName": "PatientRegistry",
  "abi": [
    {
      "anonymous": false,
      "inputs": [
        {
          "indexed": false,
          "internalType": "string",
          "name": "name",
          "type": "string"
        },
        {
          "indexed": false,
          "internalType": "string",
          "name": "relation",
          "type": "string"
        },
        {
          "indexed": false,
          "internalType": "uint256",
          "name": "age",
          "type": "uint256"
        },
        {
          "indexed": false,
          "internalType": "string",
          "name": "dob",
          "type": "string"
        },
        {
          "indexed": false,
          "internalType": "uint256",
          "name": "cholesterol",
          "type": "uint256"
        },
        {
          "indexed": false,
          "internalType": "uint256",
          "name": "restECG",
          "type": "uint256"
        },
        {
          "indexed": false,
          "internalType": "uint256",
          "name": "bloodPressure",
          "type": "uint256"
        }
      ],
      "name": "PatientRegistered",
      "type": "event"
    },
    {
      "inputs": [
        {
          "internalType": "string",
          "name": "_name",
          "type": "string"
        },
        {
          "internalType": "string",
          "name": "_relation",
          "type": "string"
        },
        {
          "internalType": "uint256",
          "name": "_age",
          "type": "uint256"
        },
        {
          "internalType": "string",
          "name": "_dob",
          "type": "string"
        },
        {
          "internalType": "uint256",
          "name": "_cholesterol",
          "type": "uint256"
        },
        {
          "internalType": "uint256",
          "name": "_restECG",
          "type": "uint256"
        },
        {
          "internalType": "uint256",
          "name": "_bloodPressure",
          "type": "uint256"
        }
      ],
      "name": "registerPatient",
      "outputs": [],
      "stateMutability": "nonpayable",
      "type": "function"
    },
    {
      "inputs": [
        {
          "internalType": "string",
          "name": "_name",
          "type": "string"
        }
      ],
      "name": "getPatientDetails",
      "outputs": [
        {
          "internalType": "string",
          "name": "",
          "type": "string"
        },
        {
          "internalType": "string",
          "name": "",
          "type": "string"
        },
        {
          "internalType": "uint256",
          "name": "",
          "type": "uint256"
        },
        {
          "internalType": "string",
          "name": "",
          "type": "string"
        },
        {
          "internalType": "uint256",
          "name": "",
          "type": "uint256"
        },
        {
          "internalType": "uint256",
          "name": "",
          "type": "uint256"
        },
        {
          "internalType": "uint256",
          "name": "",
          "type": "uint256"
        }
      ],
      "stateMutability": "view",
      "type": "function",
      "constant": true
    },
    {
      "inputs": [
        {
          "internalType": "string",
          "name": "_name",
          "type": "string"
        }
      ],
      "name": "getPatientExists",
      "outputs": [
        {
          "internalType": "bool",
          "name": "",
          "type": "bool"
        }
      ],
      "stateMutability": "view",
      "type": "function",
      "constant": true
    }
  ],
  "bytecode": "0x608060405234801561001057600080fd5b50610ba6806100206000396000f3fe608060405234801561001057600080fd5b50600436106100415760003560e01c8063aa077ac614610046578063ca789d5a14610076578063ea977fc814610092575b600080fd5b610060600480360381019061005b91906106b3565b6100c8565b60405161006d91906108f9565b60405180910390f35b610090600480360381019061008b91906106f4565b6100ff565b005b6100ac60048036038101906100a791906106b3565b6102b7565b6040516100bf9796959493929190610914565b60405180910390f35b600080826040516100d991906108e2565b908152602001604051809103902060070160009054906101000a900460ff169050919050565b60008760405161010f91906108e2565b908152602001604051809103902060070160009054906101000a900460ff161561016e576040517f08c379a000000000000000000000000000000000000000000000000000000000815260040161016590610998565b60405180910390fd5b604051806101000160405280888152602001878152602001868152602001858152602001848152602001838152602001828152602001600115158152506000886040516101bb91906108e2565b908152602001604051809103902060008201518160000190805190602001906101e5929190610593565b506020820151816001019080519060200190610202929190610593565b50604082015181600201556060820151816003019080519060200190610229929190610593565b506080820151816004015560a0820151816005015560c0820151816006015560e08201518160070160006101000a81548160ff0219169083151502179055509050507f5ed55c3432d8e2b929ce77e6f38ed214844f2683ec5138e996c2a7e630761d5d878787878787876040516102a69796959493929190610914565b60405180910390a150505050505050565b60608060006060600080600080886040516102d291906108e2565b908152602001604051809103902060070160009054906101000a900460ff16610330576040517f08c379a0000000000000000000000000000000000000000000000000000000008152600401610327906109b8565b60405180910390fd5b6000808960405161034191906108e2565b90815260200160405180910390206040518061010001604052908160008201805461036b90610ab8565b80601f016020809104026020016040519081016040528092919081815260200182805461039790610ab8565b80156103e45780601f106103b9576101008083540402835291602001916103e4565b820191906000526020600020905b8154815290600101906020018083116103c757829003601f168201915b505050505081526020016001820180546103fd90610ab8565b80601f016020809104026020016040519081016040528092919081815260200182805461042990610ab8565b80156104765780601f1061044b57610100808354040283529160200191610476565b820191906000526020600020905b81548152906001019060200180831161045957829003601f168201915b505050505081526020016002820154815260200160038201805461049990610ab8565b80601f01602080910402602001604051908101604052809291908181526020018280546104c590610ab8565b80156105125780601f106104e757610100808354040283529160200191610512565b820191906000526020600020905b8154815290600101906020018083116104f557829003601f168201915b505050505081526020016004820154815260200160058201548152602001600682015481526020016007820160009054906101000a900460ff1615151515815250509050806000015181602001518260400151836060015184608001518560a001518660c00151975097509750975097509750975050919395979092949650565b82805461059f90610ab8565b90600052602060002090601f0160209004810192826105c15760008555610608565b82601f106105da57805160ff1916838001178555610608565b82800160010185558215610608579182015b828111156106075782518255916020019190600101906105ec565b5b5090506106159190610619565b5090565b5b8082111561063257600081600090555060010161061a565b5090565b600061064961064484610a09565b6109d8565b90508281526020810184848401111561066157600080fd5b61066c848285610a76565b509392505050565b600082601f83011261068557600080fd5b8135610695848260208601610636565b91505092915050565b6000813590506106ad81610b59565b92915050565b6000602082840312156106c557600080fd5b600082013567ffffffffffffffff8111156106df57600080fd5b6106eb84828501610674565b91505092915050565b600080600080600080600060e0888a03121561070f57600080fd5b600088013567ffffffffffffffff81111561072957600080fd5b6107358a828b01610674565b975050602088013567ffffffffffffffff81111561075257600080fd5b61075e8a828b01610674565b965050604061076f8a828b0161069e565b955050606088013567ffffffffffffffff81111561078c57600080fd5b6107988a828b01610674565b94505060806107a98a828b0161069e565b93505060a06107ba8a828b0161069e565b92505060c06107cb8a828b0161069e565b91505092959891949750929550565b6107e381610a60565b82525050565b60006107f482610a39565b6107fe8185610a44565b935061080e818560208601610a85565b61081781610b48565b840191505092915050565b600061082d82610a39565b6108378185610a55565b9350610847818560208601610a85565b80840191505092915050565b6000610860601a83610a44565b91507f50617469656e7420616c726561647920726567697374657265640000000000006000830152602082019050919050565b60006108a0601183610a44565b91507f50617469656e74206e6f7420666f756e640000000000000000000000000000006000830152602082019050919050565b6108dc81610a6c565b82525050565b60006108ee8284610822565b915081905092915050565b600060208201905061090e60008301846107da565b92915050565b600060e082019050818103600083015261092e818a6107e9565b9050818103602083015261094281896107e9565b905061095160408301886108d3565b818103606083015261096381876107e9565b905061097260808301866108d3565b61097f60a08301856108d3565b61098c60c08301846108d3565b98975050505050505050565b600060208201905081810360008301526109b181610853565b9050919050565b600060208201905081810360008301526109d181610893565b9050919050565b6000604051905081810181811067ffffffffffffffff821117156109ff576109fe610b19565b5b8060405250919050565b600067ffffffffffffffff821115610a2457610a23610b19565b5b601f19601f8301169050602081019050919050565b600081519050919050565b600082825260208201905092915050565b600081905092915050565b60008115159050919050565b6000819050919050565b82818337600083830152505050565b60005b83811015610aa3578082015181840152602081019050610a88565b83811115610ab2576000848401525b50505050565b60006002820490506001821680610ad057607f821691505b60208210811415610ae457610ae3610aea565b5b50919050565b7f4e487b7100000000000000000000000000000000000000000000000000000000600052602260045260246000fd5b7f4e487b7100000000000000000000000000000000000000000000000000000000600052604160045260246000fd5b6000601f19601f8301169050919050565b610b6281610a6c565b8114610b6d57600080fd5b5056fea26469706673582212206bea80a845cc3e07f87e439b9ebb6eee9d9b61f731b9c22d7e257a63fb53592864736f6c63430008000033",
  "immutableReferences": {},
  "source": "// SPDX-License-Identifier: MIT\r\npragma solidity ^0.8.0;\r\n\r\ncontract PatientRegistry {\r\n    struct Patient {\r\n        string name;\r\n        string relation;\r\n        uint256 age;\r\n        string dob;\r\n        uint256 cholesterol;\r\n        uint256 restECG;\r\n        uint256 bloodPressure;\r\n        bool exists;\r\n    }\r\n\r\n    mapping(string => Patient) private patients;\r\n\r\n    event PatientRegistered(\r\n        string name,\r\n        string relation,\r\n        uint256 age,\r\n        string dob,\r\n        uint256 cholesterol,\r\n        uint256 restECG,\r\n        uint256 bloodPressure\r\n    );\r\n\r\n    function registerPatient(\r\n        string memory _name,\r\n        string memory _relation,\r\n        uint256 _age,\r\n        string memory _dob,\r\n        uint256 _cholesterol,\r\n        uint256 _restECG,\r\n        uint256 _bloodPressure\r\n    ) public {\r\n        require(!patients[_name].exists, \"Patient already registered\");\r\n\r\n        patients[_name] = Patient(_name, _relation, _age, _dob, _cholesterol, _restECG, _bloodPressure, true);\r\n        \r\n        emit PatientRegistered(_name, _relation, _age, _dob, _cholesterol, _restECG, _bloodPressure);\r\n    }\r\n\r\n    function getPatientDetails(string memory _name)\r\n        public\r\n        view\r\n        returns (string memory, string memory, uint256, string memory, uint256, uint256, uint256)\r\n    {\r\n        require(patients[_name].exists, \"Patient not found\");\r\n        Patient memory p = patients[_name];\r\n        return (p.name, p.relation, p.age, p.dob, p.cholesterol, p.restECG, p.bloodPressure);\r\n    }\r\n\r\n    function getPatientExists(string memory _name) public view returns (bool) {\r\n        return patients[_name].exists;\r\n    }\r\n}\r\n",
  "sourcePath": "C:\\Users\\sandh\\OneDrive\\Desktop\\DISEASE ANALYSIS\\contracts\\PatientRegistry.sol",
  "compiler": {
    "name": "solc",
    "version": "0.8.0+commit.c7dfd78e.Emscripten.clang"
  },
  "schemaVersion": "3.4.16",
  "updatedAt": "2025-04-02T05:45:00.951Z",
  "networkType": "ethereum",
  "devdoc": {
    "kind": "dev",
    "methods": {},
    "version": 1
  },
  "userdoc": {
    "kind": "user",
    "methods": {},
    "version": 1
  }
}